{
    "_format": "hh-sol-artifact-1",
    "contractName": "MNFT",
    "sourceName": "contracts/contract.sol",
    "abi": [
        {
            "inputs": [],
            "stateMutability": "nonpayable",
            "type": "constructor"
        },
        {
            "inputs": [
                {
                    "internalType": "address",
                    "name": "sender",
                    "type": "address"
                },
                {
                    "internalType": "uint256",
                    "name": "tokenId",
                    "type": "uint256"
                },
                {
                    "internalType": "address",
                    "name": "owner",
                    "type": "address"
                }
            ],
            "name": "ERC721IncorrectOwner",
            "type": "error"
        },
        {
            "inputs": [
                {
                    "internalType": "address",
                    "name": "operator",
                    "type": "address"
                },
                {
                    "internalType": "uint256",
                    "name": "tokenId",
                    "type": "uint256"
                }
            ],
            "name": "ERC721InsufficientApproval",
            "type": "error"
        },
        {
            "inputs": [
                {
                    "internalType": "address",
                    "name": "approver",
                    "type": "address"
                }
            ],
            "name": "ERC721InvalidApprover",
            "type": "error"
        },
        {
            "inputs": [
                {
                    "internalType": "address",
                    "name": "operator",
                    "type": "address"
                }
            ],
            "name": "ERC721InvalidOperator",
            "type": "error"
        },
        {
            "inputs": [
                {
                    "internalType": "address",
                    "name": "owner",
                    "type": "address"
                }
            ],
            "name": "ERC721InvalidOwner",
            "type": "error"
        },
        {
            "inputs": [
                {
                    "internalType": "address",
                    "name": "receiver",
                    "type": "address"
                }
            ],
            "name": "ERC721InvalidReceiver",
            "type": "error"
        },
        {
            "inputs": [
                {
                    "internalType": "address",
                    "name": "sender",
                    "type": "address"
                }
            ],
            "name": "ERC721InvalidSender",
            "type": "error"
        },
        {
            "inputs": [
                {
                    "internalType": "uint256",
                    "name": "tokenId",
                    "type": "uint256"
                }
            ],
            "name": "ERC721NonexistentToken",
            "type": "error"
        },
        {
            "anonymous": false,
            "inputs": [
                {
                    "indexed": true,
                    "internalType": "address",
                    "name": "owner",
                    "type": "address"
                },
                {
                    "indexed": true,
                    "internalType": "address",
                    "name": "approved",
                    "type": "address"
                },
                {
                    "indexed": true,
                    "internalType": "uint256",
                    "name": "tokenId",
                    "type": "uint256"
                }
            ],
            "name": "Approval",
            "type": "event"
        },
        {
            "anonymous": false,
            "inputs": [
                {
                    "indexed": true,
                    "internalType": "address",
                    "name": "owner",
                    "type": "address"
                },
                {
                    "indexed": true,
                    "internalType": "address",
                    "name": "operator",
                    "type": "address"
                },
                {
                    "indexed": false,
                    "internalType": "bool",
                    "name": "approved",
                    "type": "bool"
                }
            ],
            "name": "ApprovalForAll",
            "type": "event"
        },
        {
            "anonymous": false,
            "inputs": [
                {
                    "indexed": false,
                    "internalType": "uint256",
                    "name": "_fromTokenId",
                    "type": "uint256"
                },
                {
                    "indexed": false,
                    "internalType": "uint256",
                    "name": "_toTokenId",
                    "type": "uint256"
                }
            ],
            "name": "BatchMetadataUpdate",
            "type": "event"
        },
        {
            "anonymous": false,
            "inputs": [
                {
                    "indexed": false,
                    "internalType": "uint256",
                    "name": "_tokenId",
                    "type": "uint256"
                }
            ],
            "name": "MetadataUpdate",
            "type": "event"
        },
        {
            "anonymous": false,
            "inputs": [
                {
                    "indexed": false,
                    "internalType": "uint256",
                    "name": "tokenId",
                    "type": "uint256"
                },
                {
                    "indexed": false,
                    "internalType": "uint256",
                    "name": "price",
                    "type": "uint256"
                }
            ],
            "name": "NFTListed",
            "type": "event"
        },
        {
            "anonymous": false,
            "inputs": [
                {
                    "indexed": false,
                    "internalType": "uint256",
                    "name": "itemId",
                    "type": "uint256"
                },
                {
                    "indexed": false,
                    "internalType": "uint256",
                    "name": "tokenId",
                    "type": "uint256"
                },
                {
                    "indexed": false,
                    "internalType": "uint256",
                    "name": "price",
                    "type": "uint256"
                },
                {
                    "indexed": true,
                    "internalType": "address",
                    "name": "seller",
                    "type": "address"
                }
            ],
            "name": "Offered",
            "type": "event"
        },
        {
            "anonymous": false,
            "inputs": [
                {
                    "indexed": false,
                    "internalType": "uint256",
                    "name": "itemId",
                    "type": "uint256"
                },
                {
                    "indexed": false,
                    "internalType": "uint256",
                    "name": "tokenId",
                    "type": "uint256"
                },
                {
                    "indexed": false,
                    "internalType": "uint256",
                    "name": "price",
                    "type": "uint256"
                },
                {
                    "indexed": true,
                    "internalType": "address",
                    "name": "buyer",
                    "type": "address"
                }
            ],
            "name": "Purchased",
            "type": "event"
        },
        {
            "anonymous": false,
            "inputs": [
                {
                    "indexed": true,
                    "internalType": "address",
                    "name": "from",
                    "type": "address"
                },
                {
                    "indexed": true,
                    "internalType": "address",
                    "name": "to",
                    "type": "address"
                },
                {
                    "indexed": true,
                    "internalType": "uint256",
                    "name": "tokenId",
                    "type": "uint256"
                }
            ],
            "name": "Transfer",
            "type": "event"
        },
        {
            "inputs": [
                {
                    "internalType": "address",
                    "name": "to",
                    "type": "address"
                },
                {
                    "internalType": "uint256",
                    "name": "tokenId",
                    "type": "uint256"
                }
            ],
            "name": "approve",
            "outputs": [],
            "stateMutability": "nonpayable",
            "type": "function"
        },
        {
            "inputs": [
                {
                    "internalType": "address",
                    "name": "owner",
                    "type": "address"
                }
            ],
            "name": "balanceOf",
            "outputs": [
                {
                    "internalType": "uint256",
                    "name": "",
                    "type": "uint256"
                }
            ],
            "stateMutability": "view",
            "type": "function"
        },
        {
            "inputs": [
                {
                    "internalType": "uint256",
                    "name": "tokenId",
                    "type": "uint256"
                }
            ],
            "name": "getApproved",
            "outputs": [
                {
                    "internalType": "address",
                    "name": "",
                    "type": "address"
                }
            ],
            "stateMutability": "view",
            "type": "function"
        },
        {
            "inputs": [
                {
                    "internalType": "uint256",
                    "name": "_itemId",
                    "type": "uint256"
                }
            ],
            "name": "getTotalPrice",
            "outputs": [
                {
                    "internalType": "uint256",
                    "name": "",
                    "type": "uint256"
                }
            ],
            "stateMutability": "view",
            "type": "function"
        },
        {
            "inputs": [
                {
                    "internalType": "address",
                    "name": "owner",
                    "type": "address"
                },
                {
                    "internalType": "address",
                    "name": "operator",
                    "type": "address"
                }
            ],
            "name": "isApprovedForAll",
            "outputs": [
                {
                    "internalType": "bool",
                    "name": "",
                    "type": "bool"
                }
            ],
            "stateMutability": "view",
            "type": "function"
        },
        {
            "inputs": [],
            "name": "itemCount",
            "outputs": [
                {
                    "internalType": "uint256",
                    "name": "",
                    "type": "uint256"
                }
            ],
            "stateMutability": "view",
            "type": "function"
        },
        {
            "inputs": [
                {
                    "internalType": "uint256",
                    "name": "",
                    "type": "uint256"
                }
            ],
            "name": "items",
            "outputs": [
                {
                    "internalType": "uint256",
                    "name": "itemId",
                    "type": "uint256"
                },
                {
                    "internalType": "uint256",
                    "name": "tokenId",
                    "type": "uint256"
                },
                {
                    "internalType": "uint256",
                    "name": "price",
                    "type": "uint256"
                },
                {
                    "internalType": "address payable",
                    "name": "seller",
                    "type": "address"
                },
                {
                    "internalType": "bool",
                    "name": "sold",
                    "type": "bool"
                }
            ],
            "stateMutability": "view",
            "type": "function"
        },
        {
            "inputs": [
                {
                    "internalType": "uint256",
                    "name": "tokenId",
                    "type": "uint256"
                },
                {
                    "internalType": "uint256",
                    "name": "price",
                    "type": "uint256"
                }
            ],
            "name": "listNFT",
            "outputs": [],
            "stateMutability": "nonpayable",
            "type": "function"
        },
        {
            "inputs": [
                {
                    "internalType": "uint256",
                    "name": "",
                    "type": "uint256"
                }
            ],
            "name": "listedItems",
            "outputs": [
                {
                    "internalType": "uint256",
                    "name": "",
                    "type": "uint256"
                }
            ],
            "stateMutability": "view",
            "type": "function"
        },
        {
            "inputs": [
                {
                    "internalType": "string",
                    "name": "_tokenURI",
                    "type": "string"
                },
                {
                    "internalType": "uint256",
                    "name": "_price",
                    "type": "uint256"
                }
            ],
            "name": "mint",
            "outputs": [
                {
                    "internalType": "uint256",
                    "name": "",
                    "type": "uint256"
                }
            ],
            "stateMutability": "nonpayable",
            "type": "function"
        },
        {
            "inputs": [],
            "name": "name",
            "outputs": [
                {
                    "internalType": "string",
                    "name": "",
                    "type": "string"
                }
            ],
            "stateMutability": "view",
            "type": "function"
        },
        {
            "inputs": [
                {
                    "internalType": "uint256",
                    "name": "tokenId",
                    "type": "uint256"
                }
            ],
            "name": "ownerOf",
            "outputs": [
                {
                    "internalType": "address",
                    "name": "",
                    "type": "address"
                }
            ],
            "stateMutability": "view",
            "type": "function"
        },
        {
            "inputs": [
                {
                    "internalType": "uint256",
                    "name": "_itemId",
                    "type": "uint256"
                }
            ],
            "name": "purchaseItem",
            "outputs": [],
            "stateMutability": "payable",
            "type": "function"
        },
        {
            "inputs": [
                {
                    "internalType": "address",
                    "name": "from",
                    "type": "address"
                },
                {
                    "internalType": "address",
                    "name": "to",
                    "type": "address"
                },
                {
                    "internalType": "uint256",
                    "name": "tokenId",
                    "type": "uint256"
                }
            ],
            "name": "safeTransferFrom",
            "outputs": [],
            "stateMutability": "nonpayable",
            "type": "function"
        },
        {
            "inputs": [
                {
                    "internalType": "address",
                    "name": "from",
                    "type": "address"
                },
                {
                    "internalType": "address",
                    "name": "to",
                    "type": "address"
                },
                {
                    "internalType": "uint256",
                    "name": "tokenId",
                    "type": "uint256"
                },
                {
                    "internalType": "bytes",
                    "name": "data",
                    "type": "bytes"
                }
            ],
            "name": "safeTransferFrom",
            "outputs": [],
            "stateMutability": "nonpayable",
            "type": "function"
        },
        {
            "inputs": [
                {
                    "internalType": "address",
                    "name": "operator",
                    "type": "address"
                },
                {
                    "internalType": "bool",
                    "name": "approved",
                    "type": "bool"
                }
            ],
            "name": "setApprovalForAll",
            "outputs": [],
            "stateMutability": "nonpayable",
            "type": "function"
        },
        {
            "inputs": [
                {
                    "internalType": "bytes4",
                    "name": "interfaceId",
                    "type": "bytes4"
                }
            ],
            "name": "supportsInterface",
            "outputs": [
                {
                    "internalType": "bool",
                    "name": "",
                    "type": "bool"
                }
            ],
            "stateMutability": "view",
            "type": "function"
        },
        {
            "inputs": [],
            "name": "symbol",
            "outputs": [
                {
                    "internalType": "string",
                    "name": "",
                    "type": "string"
                }
            ],
            "stateMutability": "view",
            "type": "function"
        },
        {
            "inputs": [],
            "name": "tokenCount",
            "outputs": [
                {
                    "internalType": "uint256",
                    "name": "",
                    "type": "uint256"
                }
            ],
            "stateMutability": "view",
            "type": "function"
        },
        {
            "inputs": [
                {
                    "internalType": "uint256",
                    "name": "tokenId",
                    "type": "uint256"
                }
            ],
            "name": "tokenURI",
            "outputs": [
                {
                    "internalType": "string",
                    "name": "",
                    "type": "string"
                }
            ],
            "stateMutability": "view",
            "type": "function"
        },
        {
            "inputs": [
                {
                    "internalType": "address",
                    "name": "from",
                    "type": "address"
                },
                {
                    "internalType": "address",
                    "name": "to",
                    "type": "address"
                },
                {
                    "internalType": "uint256",
                    "name": "tokenId",
                    "type": "uint256"
                }
            ],
            "name": "transferFrom",
            "outputs": [],
            "stateMutability": "nonpayable",
            "type": "function"
        }
    ],
    "bytecode": "0x60806040523480156200001157600080fd5b506040518060400160405280600581526020017f4d794e66740000000000000000000000000000000000000000000000000000008152506040518060400160405280600481526020017f4d4e46540000000000000000000000000000000000000000000000000000000081525081600090816200008f919062000324565b508060019081620000a1919062000324565b5050506200040b565b600081519050919050565b7f4e487b7100000000000000000000000000000000000000000000000000000000600052604160045260246000fd5b7f4e487b7100000000000000000000000000000000000000000000000000000000600052602260045260246000fd5b600060028204905060018216806200012c57607f821691505b602082108103620001425762000141620000e4565b5b50919050565b60008190508160005260206000209050919050565b60006020601f8301049050919050565b600082821b905092915050565b600060088302620001ac7fffffffffffffffffffffffffffffffffffffffffffffffffffffffffffffffff826200016d565b620001b886836200016d565b95508019841693508086168417925050509392505050565b6000819050919050565b6000819050919050565b600062000205620001ff620001f984620001d0565b620001da565b620001d0565b9050919050565b6000819050919050565b6200022183620001e4565b6200023962000230826200020c565b8484546200017a565b825550505050565b600090565b6200025062000241565b6200025d81848462000216565b505050565b5b8181101562000285576200027960008262000246565b60018101905062000263565b5050565b601f821115620002d4576200029e8162000148565b620002a9846200015d565b81016020851015620002b9578190505b620002d1620002c8856200015d565b83018262000262565b50505b505050565b600082821c905092915050565b6000620002f960001984600802620002d9565b1980831691505092915050565b6000620003148383620002e6565b9150826002028217905092915050565b6200032f82620000aa565b67ffffffffffffffff8111156200034b576200034a620000b5565b5b62000357825462000113565b6200036482828562000289565b600060209050601f8311600181146200039c576000841562000387578287015190505b62000393858262000306565b86555062000403565b601f198416620003ac8662000148565b60005b82811015620003d657848901518255600182019150602085019450602081019050620003af565b86831015620003f65784890151620003f2601f891682620002e6565b8355505b6001600288020188555050505b505050505050565b612f75806200041b6000396000f3fe60806040526004361061012a5760003560e01c806394383f14116100ab578063bfb231d21161006f578063bfb231d214610402578063c87b56dd14610443578063ca7dd37514610480578063d2347061146104bd578063d38ea5bf146104fa578063e985e9c5146105165761012a565b806394383f141461033157806395d89b411461035a5780639f181b5e14610385578063a22cb465146103b0578063b88d4fde146103d95761012a565b806323b872dd116100f257806323b872dd1461023a57806342842e0e146102635780636352211e1461028c5780636bfb0d01146102c957806370a08231146102f45761012a565b806301ffc9a71461012f578063056b01ce1461016c57806306fdde03146101a9578063081812fc146101d4578063095ea7b314610211575b600080fd5b34801561013b57600080fd5b5061015660048036038101906101519190612004565b610553565b604051610163919061204c565b60405180910390f35b34801561017857600080fd5b50610193600480360381019061018e91906121e3565b6105b4565b6040516101a0919061224e565b60405180910390f35b3480156101b557600080fd5b506101be61074c565b6040516101cb91906122e8565b60405180910390f35b3480156101e057600080fd5b506101fb60048036038101906101f6919061230a565b6107de565b6040516102089190612378565b60405180910390f35b34801561021d57600080fd5b50610238600480360381019061023391906123bf565b6107fa565b005b34801561024657600080fd5b50610261600480360381019061025c91906123ff565b610810565b005b34801561026f57600080fd5b5061028a600480360381019061028591906123ff565b610912565b005b34801561029857600080fd5b506102b360048036038101906102ae919061230a565b610932565b6040516102c09190612378565b60405180910390f35b3480156102d557600080fd5b506102de610944565b6040516102eb919061224e565b60405180910390f35b34801561030057600080fd5b5061031b60048036038101906103169190612452565b61094a565b604051610328919061224e565b60405180910390f35b34801561033d57600080fd5b506103586004803603810190610353919061247f565b610a04565b005b34801561036657600080fd5b5061036f610b12565b60405161037c91906122e8565b60405180910390f35b34801561039157600080fd5b5061039a610ba4565b6040516103a7919061224e565b60405180910390f35b3480156103bc57600080fd5b506103d760048036038101906103d291906124eb565b610baa565b005b3480156103e557600080fd5b5061040060048036038101906103fb91906125cc565b610bc0565b005b34801561040e57600080fd5b506104296004803603810190610424919061230a565b610be5565b60405161043a959493929190612670565b60405180910390f35b34801561044f57600080fd5b5061046a6004803603810190610465919061230a565b610c48565b60405161047791906122e8565b60405180910390f35b34801561048c57600080fd5b506104a760048036038101906104a2919061230a565b610d5b565b6040516104b4919061224e565b60405180910390f35b3480156104c957600080fd5b506104e460048036038101906104df919061230a565b610d93565b6040516104f1919061224e565b60405180910390f35b610514600480360381019061050f919061230a565b610dab565b005b34801561052257600080fd5b5061053d600480360381019061053891906126c3565b610fe0565b60405161054a919061204c565b60405180910390f35b6000634906490660e01b7bffffffffffffffffffffffffffffffffffffffffffffffffffffffff1916827bffffffffffffffffffffffffffffffffffffffffffffffffffffffff191614806105ad57506105ac82611074565b5b9050919050565b6000600760008154809291906105c990612732565b9190505550600860008154809291906105e190612732565b91905055506105f233600754611156565b6105fe60075484611174565b6040518060a00160405280600854815260200160075481526020018381526020013373ffffffffffffffffffffffffffffffffffffffff1681526020016000151581525060096000600854815260200190815260200160002060008201518160000155602082015181600101556040820151816002015560608201518160030160006101000a81548173ffffffffffffffffffffffffffffffffffffffff021916908373ffffffffffffffffffffffffffffffffffffffff16021790555060808201518160030160146101000a81548160ff0219169083151502179055509050503373ffffffffffffffffffffffffffffffffffffffff167fd846d2cfaaa23a2723be747ef18b5d16a1484d901d581da4843cc27638c862ad6008546007548560405161072d9392919061277a565b60405180910390a261074160075483610a04565b600754905092915050565b60606000805461075b906127e0565b80601f0160208091040260200160405190810160405280929190818152602001828054610787906127e0565b80156107d45780601f106107a9576101008083540402835291602001916107d4565b820191906000526020600020905b8154815290600101906020018083116107b757829003601f168201915b5050505050905090565b60006107e9826111d0565b506107f382611258565b9050919050565b61080c8282610807611295565b61129d565b5050565b600073ffffffffffffffffffffffffffffffffffffffff168273ffffffffffffffffffffffffffffffffffffffff16036108825760006040517f64a0ae920000000000000000000000000000000000000000000000000000000081526004016108799190612378565b60405180910390fd5b60006108968383610891611295565b6112af565b90508373ffffffffffffffffffffffffffffffffffffffff168173ffffffffffffffffffffffffffffffffffffffff161461090c578382826040517f64283d7b00000000000000000000000000000000000000000000000000000000815260040161090393929190612811565b60405180910390fd5b50505050565b61092d83838360405180602001604052806000815250610bc0565b505050565b600061093d826111d0565b9050919050565b60085481565b60008073ffffffffffffffffffffffffffffffffffffffff168273ffffffffffffffffffffffffffffffffffffffff16036109bd5760006040517f89c62b640000000000000000000000000000000000000000000000000000000081526004016109b49190612378565b60405180910390fd5b600360008373ffffffffffffffffffffffffffffffffffffffff1673ffffffffffffffffffffffffffffffffffffffff168152602001908152602001600020549050919050565b3373ffffffffffffffffffffffffffffffffffffffff16610a2483610932565b73ffffffffffffffffffffffffffffffffffffffff1614610a7a576040517f08c379a0000000000000000000000000000000000000000000000000000000008152600401610a7190612894565b60405180910390fd5b60008111610abd576040517f08c379a0000000000000000000000000000000000000000000000000000000008152600401610ab490612900565b60405180910390fd5b80600a6000848152602001908152602001600020819055507fa6cd73580a273eec6c1026108f6b63479fbaef5356dde4ff43e4b38dd187485f8282604051610b06929190612920565b60405180910390a15050565b606060018054610b21906127e0565b80601f0160208091040260200160405190810160405280929190818152602001828054610b4d906127e0565b8015610b9a5780601f10610b6f57610100808354040283529160200191610b9a565b820191906000526020600020905b815481529060010190602001808311610b7d57829003601f168201915b5050505050905090565b60075481565b610bbc610bb5611295565b83836114c9565b5050565b610bcb848484610810565b610bdf610bd6611295565b85858585611638565b50505050565b60096020528060005260406000206000915090508060000154908060010154908060020154908060030160009054906101000a900473ffffffffffffffffffffffffffffffffffffffff16908060030160149054906101000a900460ff16905085565b6060610c53826111d0565b506000600660008481526020019081526020016000208054610c74906127e0565b80601f0160208091040260200160405190810160405280929190818152602001828054610ca0906127e0565b8015610ced5780601f10610cc257610100808354040283529160200191610ced565b820191906000526020600020905b815481529060010190602001808311610cd057829003601f168201915b505050505090506000610cfe6117e9565b90506000815103610d13578192505050610d56565b600082511115610d48578082604051602001610d30929190612985565b60405160208183030381529060405292505050610d56565b610d5184611800565b925050505b919050565b6000606460676009600085815260200190815260200160002060020154610d8291906129a9565b610d8c9190612a1a565b9050919050565b600a6020528060005260406000206000915090505481565b6000610db682610d5b565b90506000600960008481526020019081526020016000209050600083118015610de157506008548311155b610e20576040517f08c379a0000000000000000000000000000000000000000000000000000000008152600401610e1790612a97565b60405180910390fd5b81341015610e63576040517f08c379a0000000000000000000000000000000000000000000000000000000008152600401610e5a90612b29565b60405180910390fd5b8060030160009054906101000a900473ffffffffffffffffffffffffffffffffffffffff1673ffffffffffffffffffffffffffffffffffffffff163373ffffffffffffffffffffffffffffffffffffffff1603610ef5576040517f08c379a0000000000000000000000000000000000000000000000000000000008152600401610eec90612b95565b60405180910390fd5b8060030160009054906101000a900473ffffffffffffffffffffffffffffffffffffffff1673ffffffffffffffffffffffffffffffffffffffff166108fc82600201549081150290604051600060405180830381858888f19350505050158015610f63573d6000803e3d6000fd5b5060018160030160146101000a81548160ff0219169083151502179055503373ffffffffffffffffffffffffffffffffffffffff167fa923744d7e04ff4b7968f28603d15274656557c57da1606caa6feb90bd50a37b8483600101548460020154604051610fd39392919061277a565b60405180910390a2505050565b6000600560008473ffffffffffffffffffffffffffffffffffffffff1673ffffffffffffffffffffffffffffffffffffffff16815260200190815260200160002060008373ffffffffffffffffffffffffffffffffffffffff1673ffffffffffffffffffffffffffffffffffffffff16815260200190815260200160002060009054906101000a900460ff16905092915050565b60007f80ac58cd000000000000000000000000000000000000000000000000000000007bffffffffffffffffffffffffffffffffffffffffffffffffffffffff1916827bffffffffffffffffffffffffffffffffffffffffffffffffffffffff1916148061113f57507f5b5e139f000000000000000000000000000000000000000000000000000000007bffffffffffffffffffffffffffffffffffffffffffffffffffffffff1916827bffffffffffffffffffffffffffffffffffffffffffffffffffffffff1916145b8061114f575061114e82611869565b5b9050919050565b6111708282604051806020016040528060008152506118d3565b5050565b806006600084815260200190815260200160002090816111949190612d61565b507ff8e1a15aba9398e019f0b49df1a4fde98ee17ae345cb5f6b5e2c27f5033e8ce7826040516111c4919061224e565b60405180910390a15050565b6000806111dc836118f7565b9050600073ffffffffffffffffffffffffffffffffffffffff168173ffffffffffffffffffffffffffffffffffffffff160361124f57826040517f7e273289000000000000000000000000000000000000000000000000000000008152600401611246919061224e565b60405180910390fd5b80915050919050565b60006004600083815260200190815260200160002060009054906101000a900473ffffffffffffffffffffffffffffffffffffffff169050919050565b600033905090565b6112aa8383836001611934565b505050565b6000806112bb846118f7565b9050600073ffffffffffffffffffffffffffffffffffffffff168373ffffffffffffffffffffffffffffffffffffffff16146112fd576112fc818486611af9565b5b600073ffffffffffffffffffffffffffffffffffffffff168173ffffffffffffffffffffffffffffffffffffffff161461138e5761133f600085600080611934565b6001600360008373ffffffffffffffffffffffffffffffffffffffff1673ffffffffffffffffffffffffffffffffffffffff168152602001908152602001600020600082825403925050819055505b600073ffffffffffffffffffffffffffffffffffffffff168573ffffffffffffffffffffffffffffffffffffffff1614611411576001600360008773ffffffffffffffffffffffffffffffffffffffff1673ffffffffffffffffffffffffffffffffffffffff168152602001908152602001600020600082825401925050819055505b846002600086815260200190815260200160002060006101000a81548173ffffffffffffffffffffffffffffffffffffffff021916908373ffffffffffffffffffffffffffffffffffffffff160217905550838573ffffffffffffffffffffffffffffffffffffffff168273ffffffffffffffffffffffffffffffffffffffff167fddf252ad1be2c89b69c2b068fc378daa952ba7f163c4a11628f55a4df523b3ef60405160405180910390a4809150509392505050565b600073ffffffffffffffffffffffffffffffffffffffff168273ffffffffffffffffffffffffffffffffffffffff160361153a57816040517f5b08ba180000000000000000000000000000000000000000000000000000000081526004016115319190612378565b60405180910390fd5b80600560008573ffffffffffffffffffffffffffffffffffffffff1673ffffffffffffffffffffffffffffffffffffffff16815260200190815260200160002060008473ffffffffffffffffffffffffffffffffffffffff1673ffffffffffffffffffffffffffffffffffffffff16815260200190815260200160002060006101000a81548160ff0219169083151502179055508173ffffffffffffffffffffffffffffffffffffffff168373ffffffffffffffffffffffffffffffffffffffff167f17307eab39ab6107e8899845ad3d59bd9653f200f220920489ca2b5937696c318360405161162b919061204c565b60405180910390a3505050565b60008373ffffffffffffffffffffffffffffffffffffffff163b11156117e2578273ffffffffffffffffffffffffffffffffffffffff1663150b7a02868685856040518563ffffffff1660e01b81526004016116979493929190612e88565b6020604051808303816000875af19250505080156116d357506040513d601f19601f820116820180604052508101906116d09190612ee9565b60015b611757573d8060008114611703576040519150601f19603f3d011682016040523d82523d6000602084013e611708565b606091505b50600081510361174f57836040517f64a0ae920000000000000000000000000000000000000000000000000000000081526004016117469190612378565b60405180910390fd5b805181602001fd5b63150b7a0260e01b7bffffffffffffffffffffffffffffffffffffffffffffffffffffffff1916817bffffffffffffffffffffffffffffffffffffffffffffffffffffffff1916146117e057836040517f64a0ae920000000000000000000000000000000000000000000000000000000081526004016117d79190612378565b60405180910390fd5b505b5050505050565b606060405180602001604052806000815250905090565b606061180b826111d0565b5060006118166117e9565b905060008151116118365760405180602001604052806000815250611861565b8061184084611bbd565b604051602001611851929190612985565b6040516020818303038152906040525b915050919050565b60007f01ffc9a7000000000000000000000000000000000000000000000000000000007bffffffffffffffffffffffffffffffffffffffffffffffffffffffff1916827bffffffffffffffffffffffffffffffffffffffffffffffffffffffff1916149050919050565b6118dd8383611c8b565b6118f26118e8611295565b6000858585611638565b505050565b60006002600083815260200190815260200160002060009054906101000a900473ffffffffffffffffffffffffffffffffffffffff169050919050565b808061196d5750600073ffffffffffffffffffffffffffffffffffffffff168273ffffffffffffffffffffffffffffffffffffffff1614155b15611aa157600061197d846111d0565b9050600073ffffffffffffffffffffffffffffffffffffffff168373ffffffffffffffffffffffffffffffffffffffff16141580156119e857508273ffffffffffffffffffffffffffffffffffffffff168173ffffffffffffffffffffffffffffffffffffffff1614155b80156119fb57506119f98184610fe0565b155b15611a3d57826040517fa9fbf51f000000000000000000000000000000000000000000000000000000008152600401611a349190612378565b60405180910390fd5b8115611a9f57838573ffffffffffffffffffffffffffffffffffffffff168273ffffffffffffffffffffffffffffffffffffffff167f8c5be1e5ebec7d5bd14f71427d1e84f3dd0314c0f7b2291e5b200ac8c7c3b92560405160405180910390a45b505b836004600085815260200190815260200160002060006101000a81548173ffffffffffffffffffffffffffffffffffffffff021916908373ffffffffffffffffffffffffffffffffffffffff16021790555050505050565b611b04838383611d84565b611bb857600073ffffffffffffffffffffffffffffffffffffffff168373ffffffffffffffffffffffffffffffffffffffff1603611b7957806040517f7e273289000000000000000000000000000000000000000000000000000000008152600401611b70919061224e565b60405180910390fd5b81816040517f177e802f000000000000000000000000000000000000000000000000000000008152600401611baf929190612f16565b60405180910390fd5b505050565b606060006001611bcc84611e45565b01905060008167ffffffffffffffff811115611beb57611bea612082565b5b6040519080825280601f01601f191660200182016040528015611c1d5781602001600182028036833780820191505090505b509050600082602001820190505b600115611c80578080600190039150507f3031323334353637383961626364656600000000000000000000000000000000600a86061a8153600a8581611c7457611c736129eb565b5b04945060008503611c2b575b819350505050919050565b600073ffffffffffffffffffffffffffffffffffffffff168273ffffffffffffffffffffffffffffffffffffffff1603611cfd5760006040517f64a0ae92000000000000000000000000000000000000000000000000000000008152600401611cf49190612378565b60405180910390fd5b6000611d0b838360006112af565b9050600073ffffffffffffffffffffffffffffffffffffffff168173ffffffffffffffffffffffffffffffffffffffff1614611d7f5760006040517f73c6ac6e000000000000000000000000000000000000000000000000000000008152600401611d769190612378565b60405180910390fd5b505050565b60008073ffffffffffffffffffffffffffffffffffffffff168373ffffffffffffffffffffffffffffffffffffffff1614158015611e3c57508273ffffffffffffffffffffffffffffffffffffffff168473ffffffffffffffffffffffffffffffffffffffff161480611dfd5750611dfc8484610fe0565b5b80611e3b57508273ffffffffffffffffffffffffffffffffffffffff16611e2383611258565b73ffffffffffffffffffffffffffffffffffffffff16145b5b90509392505050565b600080600090507a184f03e93ff9f4daa797ed6e38ed64bf6a1f0100000000000000008310611ea3577a184f03e93ff9f4daa797ed6e38ed64bf6a1f0100000000000000008381611e9957611e986129eb565b5b0492506040810190505b6d04ee2d6d415b85acef81000000008310611ee0576d04ee2d6d415b85acef81000000008381611ed657611ed56129eb565b5b0492506020810190505b662386f26fc100008310611f0f57662386f26fc100008381611f0557611f046129eb565b5b0492506010810190505b6305f5e1008310611f38576305f5e1008381611f2e57611f2d6129eb565b5b0492506008810190505b6127108310611f5d576127108381611f5357611f526129eb565b5b0492506004810190505b60648310611f805760648381611f7657611f756129eb565b5b0492506002810190505b600a8310611f8f576001810190505b80915050919050565b6000604051905090565b600080fd5b600080fd5b60007fffffffff0000000000000000000000000000000000000000000000000000000082169050919050565b611fe181611fac565b8114611fec57600080fd5b50565b600081359050611ffe81611fd8565b92915050565b60006020828403121561201a57612019611fa2565b5b600061202884828501611fef565b91505092915050565b60008115159050919050565b61204681612031565b82525050565b6000602082019050612061600083018461203d565b92915050565b600080fd5b600080fd5b6000601f19601f8301169050919050565b7f4e487b7100000000000000000000000000000000000000000000000000000000600052604160045260246000fd5b6120ba82612071565b810181811067ffffffffffffffff821117156120d9576120d8612082565b5b80604052505050565b60006120ec611f98565b90506120f882826120b1565b919050565b600067ffffffffffffffff82111561211857612117612082565b5b61212182612071565b9050602081019050919050565b82818337600083830152505050565b600061215061214b846120fd565b6120e2565b90508281526020810184848401111561216c5761216b61206c565b5b61217784828561212e565b509392505050565b600082601f83011261219457612193612067565b5b81356121a484826020860161213d565b91505092915050565b6000819050919050565b6121c0816121ad565b81146121cb57600080fd5b50565b6000813590506121dd816121b7565b92915050565b600080604083850312156121fa576121f9611fa2565b5b600083013567ffffffffffffffff81111561221857612217611fa7565b5b6122248582860161217f565b9250506020612235858286016121ce565b9150509250929050565b612248816121ad565b82525050565b6000602082019050612263600083018461223f565b92915050565b600081519050919050565b600082825260208201905092915050565b60005b838110156122a3578082015181840152602081019050612288565b60008484015250505050565b60006122ba82612269565b6122c48185612274565b93506122d4818560208601612285565b6122dd81612071565b840191505092915050565b6000602082019050818103600083015261230281846122af565b905092915050565b6000602082840312156123205761231f611fa2565b5b600061232e848285016121ce565b91505092915050565b600073ffffffffffffffffffffffffffffffffffffffff82169050919050565b600061236282612337565b9050919050565b61237281612357565b82525050565b600060208201905061238d6000830184612369565b92915050565b61239c81612357565b81146123a757600080fd5b50565b6000813590506123b981612393565b92915050565b600080604083850312156123d6576123d5611fa2565b5b60006123e4858286016123aa565b92505060206123f5858286016121ce565b9150509250929050565b60008060006060848603121561241857612417611fa2565b5b6000612426868287016123aa565b9350506020612437868287016123aa565b9250506040612448868287016121ce565b9150509250925092565b60006020828403121561246857612467611fa2565b5b6000612476848285016123aa565b91505092915050565b6000806040838503121561249657612495611fa2565b5b60006124a4858286016121ce565b92505060206124b5858286016121ce565b9150509250929050565b6124c881612031565b81146124d357600080fd5b50565b6000813590506124e5816124bf565b92915050565b6000806040838503121561250257612501611fa2565b5b6000612510858286016123aa565b9250506020612521858286016124d6565b9150509250929050565b600067ffffffffffffffff82111561254657612545612082565b5b61254f82612071565b9050602081019050919050565b600061256f61256a8461252b565b6120e2565b90508281526020810184848401111561258b5761258a61206c565b5b61259684828561212e565b509392505050565b600082601f8301126125b3576125b2612067565b5b81356125c384826020860161255c565b91505092915050565b600080600080608085870312156125e6576125e5611fa2565b5b60006125f4878288016123aa565b9450506020612605878288016123aa565b9350506040612616878288016121ce565b925050606085013567ffffffffffffffff81111561263757612636611fa7565b5b6126438782880161259e565b91505092959194509250565b600061265a82612337565b9050919050565b61266a8161264f565b82525050565b600060a082019050612685600083018861223f565b612692602083018761223f565b61269f604083018661223f565b6126ac6060830185612661565b6126b9608083018461203d565b9695505050505050565b600080604083850312156126da576126d9611fa2565b5b60006126e8858286016123aa565b92505060206126f9858286016123aa565b9150509250929050565b7f4e487b7100000000000000000000000000000000000000000000000000000000600052601160045260246000fd5b600061273d826121ad565b91507fffffffffffffffffffffffffffffffffffffffffffffffffffffffffffffffff820361276f5761276e612703565b5b600182019050919050565b600060608201905061278f600083018661223f565b61279c602083018561223f565b6127a9604083018461223f565b949350505050565b7f4e487b7100000000000000000000000000000000000000000000000000000000600052602260045260246000fd5b600060028204905060018216806127f857607f821691505b60208210810361280b5761280a6127b1565b5b50919050565b60006060820190506128266000830186612369565b612833602083018561223f565b6128406040830184612369565b949350505050565b7f596f7520646f206e6f74206f776e2074686973204e4654000000000000000000600082015250565b600061287e601783612274565b915061288982612848565b602082019050919050565b600060208201905081810360008301526128ad81612871565b9050919050565b7f5072696365206d7573742062652067726561746572207468616e203000000000600082015250565b60006128ea601c83612274565b91506128f5826128b4565b602082019050919050565b60006020820190508181036000830152612919816128dd565b9050919050565b6000604082019050612935600083018561223f565b612942602083018461223f565b9392505050565b600081905092915050565b600061295f82612269565b6129698185612949565b9350612979818560208601612285565b80840191505092915050565b60006129918285612954565b915061299d8284612954565b91508190509392505050565b60006129b4826121ad565b91506129bf836121ad565b92508282026129cd816121ad565b915082820484148315176129e4576129e3612703565b5b5092915050565b7f4e487b7100000000000000000000000000000000000000000000000000000000600052601260045260246000fd5b6000612a25826121ad565b9150612a30836121ad565b925082612a4057612a3f6129eb565b5b828204905092915050565b7f4974656d20646f65736e27742065786973740000000000000000000000000000600082015250565b6000612a81601283612274565b9150612a8c82612a4b565b602082019050919050565b60006020820190508181036000830152612ab081612a74565b9050919050565b7f4e6f7420656e6f75676820657468657220746f20636f766572206974656d207060008201527f7269636500000000000000000000000000000000000000000000000000000000602082015250565b6000612b13602483612274565b9150612b1e82612ab7565b604082019050919050565b60006020820190508181036000830152612b4281612b06565b9050919050565b7f73656c6c65722063616e6e6f7420627579000000000000000000000000000000600082015250565b6000612b7f601183612274565b9150612b8a82612b49565b602082019050919050565b60006020820190508181036000830152612bae81612b72565b9050919050565b60008190508160005260206000209050919050565b60006020601f8301049050919050565b600082821b905092915050565b600060088302612c177fffffffffffffffffffffffffffffffffffffffffffffffffffffffffffffffff82612bda565b612c218683612bda565b95508019841693508086168417925050509392505050565b6000819050919050565b6000612c5e612c59612c54846121ad565b612c39565b6121ad565b9050919050565b6000819050919050565b612c7883612c43565b612c8c612c8482612c65565b848454612be7565b825550505050565b600090565b612ca1612c94565b612cac818484612c6f565b505050565b5b81811015612cd057612cc5600082612c99565b600181019050612cb2565b5050565b601f821115612d1557612ce681612bb5565b612cef84612bca565b81016020851015612cfe578190505b612d12612d0a85612bca565b830182612cb1565b50505b505050565b600082821c905092915050565b6000612d3860001984600802612d1a565b1980831691505092915050565b6000612d518383612d27565b9150826002028217905092915050565b612d6a82612269565b67ffffffffffffffff811115612d8357612d82612082565b5b612d8d82546127e0565b612d98828285612cd4565b600060209050601f831160018114612dcb5760008415612db9578287015190505b612dc38582612d45565b865550612e2b565b601f198416612dd986612bb5565b60005b82811015612e0157848901518255600182019150602085019450602081019050612ddc565b86831015612e1e5784890151612e1a601f891682612d27565b8355505b6001600288020188555050505b505050505050565b600081519050919050565b600082825260208201905092915050565b6000612e5a82612e33565b612e648185612e3e565b9350612e74818560208601612285565b612e7d81612071565b840191505092915050565b6000608082019050612e9d6000830187612369565b612eaa6020830186612369565b612eb7604083018561223f565b8181036060830152612ec98184612e4f565b905095945050505050565b600081519050612ee381611fd8565b92915050565b600060208284031215612eff57612efe611fa2565b5b6000612f0d84828501612ed4565b91505092915050565b6000604082019050612f2b6000830185612369565b612f38602083018461223f565b939250505056fea2646970667358221220c467f2059287afe3dc584544cf835ef5c433c3b39ccd5a4f2d9a658fb57eb6dc64736f6c63430008140033",
    "linkReferences": {},
    "deployedLinkReferences": {}
}